{
  "contractName": "CrowdFunding",
  "abi": [
    {
      "inputs": [
        {
          "internalType": "string",
          "name": "_id",
          "type": "string"
        },
        {
          "internalType": "string",
          "name": "_name",
          "type": "string"
        },
        {
          "internalType": "string",
          "name": "_description",
          "type": "string"
        },
        {
          "internalType": "uint256",
          "name": "_fundraisingGoal",
          "type": "uint256"
        }
      ],
      "stateMutability": "nonpayable",
      "type": "constructor"
    },
    {
      "inputs": [],
      "name": "author",
      "outputs": [
        {
          "internalType": "address payable",
          "name": "",
          "type": "address"
        }
      ],
      "stateMutability": "view",
      "type": "function",
      "constant": true
    },
    {
      "inputs": [],
      "name": "description",
      "outputs": [
        {
          "internalType": "string",
          "name": "",
          "type": "string"
        }
      ],
      "stateMutability": "view",
      "type": "function",
      "constant": true
    },
    {
      "inputs": [],
      "name": "fundraisingGoal",
      "outputs": [
        {
          "internalType": "uint256",
          "name": "",
          "type": "uint256"
        }
      ],
      "stateMutability": "view",
      "type": "function",
      "constant": true
    },
    {
      "inputs": [],
      "name": "funds",
      "outputs": [
        {
          "internalType": "uint256",
          "name": "",
          "type": "uint256"
        }
      ],
      "stateMutability": "view",
      "type": "function",
      "constant": true
    },
    {
      "inputs": [],
      "name": "id",
      "outputs": [
        {
          "internalType": "string",
          "name": "",
          "type": "string"
        }
      ],
      "stateMutability": "view",
      "type": "function",
      "constant": true
    },
    {
      "inputs": [],
      "name": "name",
      "outputs": [
        {
          "internalType": "string",
          "name": "",
          "type": "string"
        }
      ],
      "stateMutability": "view",
      "type": "function",
      "constant": true
    },
    {
      "inputs": [],
      "name": "state",
      "outputs": [
        {
          "internalType": "string",
          "name": "",
          "type": "string"
        }
      ],
      "stateMutability": "view",
      "type": "function",
      "constant": true
    },
    {
      "inputs": [],
      "name": "fundProject",
      "outputs": [],
      "stateMutability": "payable",
      "type": "function",
      "payable": true
    },
    {
      "inputs": [
        {
          "internalType": "string",
          "name": "newState",
          "type": "string"
        }
      ],
      "name": "changeProjectState",
      "outputs": [],
      "stateMutability": "nonpayable",
      "type": "function"
    }
  ],
  "bytecode": "0x60806040526040518060400160405280600781526020017f4f70656e64656400000000000000000000000000000000000000000000000000815250600490816200004a919062000380565b503480156200005857600080fd5b50604051620011ac380380620011ac83398181016040528101906200007e919062000606565b83600090816200008f919062000380565b508260019081620000a1919062000380565b508160029081620000b3919062000380565b508060068190555033600360006101000a81548173ffffffffffffffffffffffffffffffffffffffff021916908373ffffffffffffffffffffffffffffffffffffffff16021790555050505050620006d5565b600081519050919050565b7f4e487b7100000000000000000000000000000000000000000000000000000000600052604160045260246000fd5b7f4e487b7100000000000000000000000000000000000000000000000000000000600052602260045260246000fd5b600060028204905060018216806200018857607f821691505b6020821081036200019e576200019d62000140565b5b50919050565b60008190508160005260206000209050919050565b60006020601f8301049050919050565b600082821b905092915050565b600060088302620002087fffffffffffffffffffffffffffffffffffffffffffffffffffffffffffffffff82620001c9565b620002148683620001c9565b95508019841693508086168417925050509392505050565b6000819050919050565b6000819050919050565b6000620002616200025b62000255846200022c565b62000236565b6200022c565b9050919050565b6000819050919050565b6200027d8362000240565b620002956200028c8262000268565b848454620001d6565b825550505050565b600090565b620002ac6200029d565b620002b981848462000272565b505050565b5b81811015620002e157620002d5600082620002a2565b600181019050620002bf565b5050565b601f8211156200033057620002fa81620001a4565b6200030584620001b9565b8101602085101562000315578190505b6200032d6200032485620001b9565b830182620002be565b50505b505050565b600082821c905092915050565b6000620003556000198460080262000335565b1980831691505092915050565b600062000370838362000342565b9150826002028217905092915050565b6200038b8262000106565b67ffffffffffffffff811115620003a757620003a662000111565b5b620003b382546200016f565b620003c0828285620002e5565b600060209050601f831160018114620003f85760008415620003e3578287015190505b620003ef858262000362565b8655506200045f565b601f1984166200040886620001a4565b60005b8281101562000432578489015182556001820191506020850194506020810190506200040b565b868310156200045257848901516200044e601f89168262000342565b8355505b6001600288020188555050505b505050505050565b6000604051905090565b600080fd5b600080fd5b600080fd5b600080fd5b6000601f19601f8301169050919050565b620004a18262000485565b810181811067ffffffffffffffff82111715620004c357620004c262000111565b5b80604052505050565b6000620004d862000467565b9050620004e6828262000496565b919050565b600067ffffffffffffffff82111562000509576200050862000111565b5b620005148262000485565b9050602081019050919050565b60005b838110156200054157808201518184015260208101905062000524565b8381111562000551576000848401525b50505050565b60006200056e6200056884620004eb565b620004cc565b9050828152602081018484840111156200058d576200058c62000480565b5b6200059a84828562000521565b509392505050565b600082601f830112620005ba57620005b96200047b565b5b8151620005cc84826020860162000557565b91505092915050565b620005e0816200022c565b8114620005ec57600080fd5b50565b6000815190506200060081620005d5565b92915050565b6000806000806080858703121562000623576200062262000471565b5b600085015167ffffffffffffffff81111562000644576200064362000476565b5b6200065287828801620005a2565b945050602085015167ffffffffffffffff81111562000676576200067562000476565b5b6200068487828801620005a2565b935050604085015167ffffffffffffffff811115620006a857620006a762000476565b5b620006b687828801620005a2565b9250506060620006c987828801620005ef565b91505092959194509250565b610ac780620006e56000396000f3fe6080604052600436106100865760003560e01c8063af640d0f11610059578063af640d0f14610137578063b767050d14610162578063c19d93fb1461018b578063c89f2ce4146101b6578063d63dc661146101e157610086565b806306fdde031461008b5780637284e416146100b65780639e7b08d5146100e1578063a6c3e6b91461010c575b600080fd5b34801561009757600080fd5b506100a06101eb565b6040516100ad9190610588565b60405180910390f35b3480156100c257600080fd5b506100cb610279565b6040516100d89190610588565b60405180910390f35b3480156100ed57600080fd5b506100f6610307565b60405161010391906105c3565b60405180910390f35b34801561011857600080fd5b5061012161030d565b60405161012e919061061f565b60405180910390f35b34801561014357600080fd5b5061014c610333565b6040516101599190610588565b60405180910390f35b34801561016e57600080fd5b50610189600480360381019061018491906106a9565b6103c1565b005b34801561019757600080fd5b506101a06103d7565b6040516101ad9190610588565b60405180910390f35b3480156101c257600080fd5b506101cb610465565b6040516101d891906105c3565b60405180910390f35b6101e961046b565b005b600180546101f890610725565b80601f016020809104026020016040519081016040528092919081815260200182805461022490610725565b80156102715780601f1061024657610100808354040283529160200191610271565b820191906000526020600020905b81548152906001019060200180831161025457829003601f168201915b505050505081565b6002805461028690610725565b80601f01602080910402602001604051908101604052809291908181526020018280546102b290610725565b80156102ff5780601f106102d4576101008083540402835291602001916102ff565b820191906000526020600020905b8154815290600101906020018083116102e257829003601f168201915b505050505081565b60065481565b600360009054906101000a900473ffffffffffffffffffffffffffffffffffffffff1681565b6000805461034090610725565b80601f016020809104026020016040519081016040528092919081815260200182805461036c90610725565b80156103b95780601f1061038e576101008083540402835291602001916103b9565b820191906000526020600020905b81548152906001019060200180831161039c57829003601f168201915b505050505081565b8181600491826103d292919061093c565b505050565b600480546103e490610725565b80601f016020809104026020016040519081016040528092919081815260200182805461041090610725565b801561045d5780601f106104325761010080835404028352916020019161045d565b820191906000526020600020905b81548152906001019060200180831161044057829003601f168201915b505050505081565b60055481565b600360009054906101000a900473ffffffffffffffffffffffffffffffffffffffff1673ffffffffffffffffffffffffffffffffffffffff166108fc349081150290604051600060405180830381858888f193505050501580156104d3573d6000803e3d6000fd5b5034600560008282546104e69190610a3b565b92505081905550565b600081519050919050565b600082825260208201905092915050565b60005b8381101561052957808201518184015260208101905061050e565b83811115610538576000848401525b50505050565b6000601f19601f8301169050919050565b600061055a826104ef565b61056481856104fa565b935061057481856020860161050b565b61057d8161053e565b840191505092915050565b600060208201905081810360008301526105a2818461054f565b905092915050565b6000819050919050565b6105bd816105aa565b82525050565b60006020820190506105d860008301846105b4565b92915050565b600073ffffffffffffffffffffffffffffffffffffffff82169050919050565b6000610609826105de565b9050919050565b610619816105fe565b82525050565b60006020820190506106346000830184610610565b92915050565b600080fd5b600080fd5b600080fd5b600080fd5b600080fd5b60008083601f84011261066957610668610644565b5b8235905067ffffffffffffffff81111561068657610685610649565b5b6020830191508360018202830111156106a2576106a161064e565b5b9250929050565b600080602083850312156106c0576106bf61063a565b5b600083013567ffffffffffffffff8111156106de576106dd61063f565b5b6106ea85828601610653565b92509250509250929050565b7f4e487b7100000000000000000000000000000000000000000000000000000000600052602260045260246000fd5b6000600282049050600182168061073d57607f821691505b6020821081036107505761074f6106f6565b5b50919050565b600082905092915050565b7f4e487b7100000000000000000000000000000000000000000000000000000000600052604160045260246000fd5b60008190508160005260206000209050919050565b60006020601f8301049050919050565b600082821b905092915050565b6000600883026107f27fffffffffffffffffffffffffffffffffffffffffffffffffffffffffffffffff826107b5565b6107fc86836107b5565b95508019841693508086168417925050509392505050565b6000819050919050565b600061083961083461082f846105aa565b610814565b6105aa565b9050919050565b6000819050919050565b6108538361081e565b61086761085f82610840565b8484546107c2565b825550505050565b600090565b61087c61086f565b61088781848461084a565b505050565b5b818110156108ab576108a0600082610874565b60018101905061088d565b5050565b601f8211156108f0576108c181610790565b6108ca846107a5565b810160208510156108d9578190505b6108ed6108e5856107a5565b83018261088c565b50505b505050565b600082821c905092915050565b6000610913600019846008026108f5565b1980831691505092915050565b600061092c8383610902565b9150826002028217905092915050565b6109468383610756565b67ffffffffffffffff81111561095f5761095e610761565b5b6109698254610725565b6109748282856108af565b6000601f8311600181146109a35760008415610991578287013590505b61099b8582610920565b865550610a03565b601f1984166109b186610790565b60005b828110156109d9578489013582556001820191506020850194506020810190506109b4565b868310156109f657848901356109f2601f891682610902565b8355505b6001600288020188555050505b50505050505050565b7f4e487b7100000000000000000000000000000000000000000000000000000000600052601160045260246000fd5b6000610a46826105aa565b9150610a51836105aa565b9250827fffffffffffffffffffffffffffffffffffffffffffffffffffffffffffffffff03821115610a8657610a85610a0c565b5b82820190509291505056fea2646970667358221220fe8e0b321cbb5ef1cd1e6c1ed17395e0c6e435afd2533ab97f36c1521f18f15164736f6c634300080f0033",
  "immutableReferences": {},
  "source": "// SPDX-License-Identifier: GPL-3.0\npragma solidity >=0.7.0 <0.9.0;\n\ncontract CrowdFunding {\n    string public id;\n    string public name;\n    string public description;\n    address payable public author;\n    string public state = \"Opended\";\n    uint public funds;\n    uint public fundraisingGoal;\n\n    constructor(string memory _id, string memory _name, string memory _description, uint _fundraisingGoal){\n      id = _id;\n      name = _name;\n      description = _description;\n      fundraisingGoal = _fundraisingGoal;\n      author = payable(msg.sender);\n    }\n\n    function fundProject() public payable{\n      author.transfer(msg.value);\n      funds += msg.value;\n    }\n\n    function changeProjectState(string calldata newState) public{\n      state = newState;\n    }\n}\n",
  "sourcePath": "C:\\Users\\Sergio\\Desktop\\SAGE\\01-PROPIO\\CODING\\smart-contracts\\ejercicio-1\\contracts\\CrowdFunding.sol",
  "compiler": {
    "name": "solc",
    "version": "0.8.15+commit.e14f2714.Emscripten.clang"
  },
  "schemaVersion": "3.4.7",
  "updatedAt": "2022-07-17T20:16:38.223Z",
  "networkType": "ethereum",
  "devdoc": {
    "kind": "dev",
    "methods": {},
    "version": 1
  },
  "userdoc": {
    "kind": "user",
    "methods": {},
    "version": 1
  }
}